{
  "contractName": "DigitalContentContract",
  "abi": [
    {
      "inputs": [
        {
          "internalType": "address",
          "name": "_merchant",
          "type": "address"
        },
        {
          "internalType": "address",
          "name": "_creator",
          "type": "address"
        },
        {
          "internalType": "string",
          "name": "_dcHash",
          "type": "string"
        },
        {
          "internalType": "uint256",
          "name": "_creatorCompensation",
          "type": "uint256"
        },
        {
          "internalType": "uint256",
          "name": "_currentPrice",
          "type": "uint256"
        },
        {
          "internalType": "contract DappToken",
          "name": "_token",
          "type": "address"
        }
      ],
      "payable": false,
      "stateMutability": "nonpayable",
      "type": "constructor"
    },
    {
      "constant": true,
      "inputs": [],
      "name": "creator",
      "outputs": [
        {
          "internalType": "address",
          "name": "",
          "type": "address"
        }
      ],
      "payable": false,
      "stateMutability": "view",
      "type": "function"
    },
    {
      "constant": true,
      "inputs": [],
      "name": "creatorCompensation",
      "outputs": [
        {
          "internalType": "uint256",
          "name": "",
          "type": "uint256"
        }
      ],
      "payable": false,
      "stateMutability": "view",
      "type": "function"
    },
    {
      "constant": true,
      "inputs": [],
      "name": "currentPrice",
      "outputs": [
        {
          "internalType": "uint256",
          "name": "",
          "type": "uint256"
        }
      ],
      "payable": false,
      "stateMutability": "view",
      "type": "function"
    },
    {
      "constant": true,
      "inputs": [],
      "name": "dcHash",
      "outputs": [
        {
          "internalType": "string",
          "name": "",
          "type": "string"
        }
      ],
      "payable": false,
      "stateMutability": "view",
      "type": "function"
    },
    {
      "constant": true,
      "inputs": [],
      "name": "deliverer",
      "outputs": [
        {
          "internalType": "address",
          "name": "",
          "type": "address"
        }
      ],
      "payable": false,
      "stateMutability": "view",
      "type": "function"
    },
    {
      "constant": true,
      "inputs": [],
      "name": "delivererCompensation",
      "outputs": [
        {
          "internalType": "uint256",
          "name": "",
          "type": "uint256"
        }
      ],
      "payable": false,
      "stateMutability": "view",
      "type": "function"
    },
    {
      "constant": true,
      "inputs": [],
      "name": "keyAuthority",
      "outputs": [
        {
          "internalType": "address",
          "name": "",
          "type": "address"
        }
      ],
      "payable": false,
      "stateMutability": "view",
      "type": "function"
    },
    {
      "constant": true,
      "inputs": [],
      "name": "keyAuthorityCompensation",
      "outputs": [
        {
          "internalType": "uint256",
          "name": "",
          "type": "uint256"
        }
      ],
      "payable": false,
      "stateMutability": "view",
      "type": "function"
    },
    {
      "constant": true,
      "inputs": [],
      "name": "merchant",
      "outputs": [
        {
          "internalType": "address",
          "name": "",
          "type": "address"
        }
      ],
      "payable": false,
      "stateMutability": "view",
      "type": "function"
    },
    {
      "constant": true,
      "inputs": [],
      "name": "token",
      "outputs": [
        {
          "internalType": "contract DappToken",
          "name": "",
          "type": "address"
        }
      ],
      "payable": false,
      "stateMutability": "view",
      "type": "function"
    },
    {
      "constant": false,
      "inputs": [
        {
          "internalType": "address",
          "name": "_deliverer",
          "type": "address"
        }
      ],
      "name": "setDeliverer",
      "outputs": [],
      "payable": false,
      "stateMutability": "nonpayable",
      "type": "function"
    },
    {
      "constant": false,
      "inputs": [
        {
          "internalType": "uint256",
          "name": "_delivererCompensation",
          "type": "uint256"
        }
      ],
      "name": "setDelivererCompensation",
      "outputs": [],
      "payable": false,
      "stateMutability": "nonpayable",
      "type": "function"
    },
    {
      "constant": false,
      "inputs": [
        {
          "internalType": "address",
          "name": "_keyAuthority",
          "type": "address"
        }
      ],
      "name": "setKeyAuthority",
      "outputs": [],
      "payable": false,
      "stateMutability": "nonpayable",
      "type": "function"
    },
    {
      "constant": false,
      "inputs": [
        {
          "internalType": "uint256",
          "name": "_keyAuthorityCompensation",
          "type": "uint256"
        }
      ],
      "name": "setKACompensation",
      "outputs": [],
      "payable": false,
      "stateMutability": "nonpayable",
      "type": "function"
    },
    {
      "constant": false,
      "inputs": [
        {
          "internalType": "uint256",
          "name": "newPrice",
          "type": "uint256"
        }
      ],
      "name": "setCurrentPrice",
      "outputs": [],
      "payable": false,
      "stateMutability": "nonpayable",
      "type": "function"
    },
    {
      "constant": false,
      "inputs": [],
      "name": "buy",
      "outputs": [],
      "payable": true,
      "stateMutability": "payable",
      "type": "function"
    }
  ],
  "bytecode": "0x60806040523480156200001157600080fd5b506040516200153f3803806200153f833981810160405260c08110156200003757600080fd5b810190808051906020019092919080519060200190929190805160405193929190846401000000008211156200006c57600080fd5b838201915060208201858111156200008357600080fd5b8251866001820283011164010000000082111715620000a157600080fd5b8083526020830192505050908051906020019080838360005b83811015620000d7578082015181840152602081019050620000ba565b50505050905090810190601f168015620001055780820380516001836020036101000a031916815260200191505b50604052602001805190602001909291908051906020019092919080519060200190929190505050856000806101000a81548173ffffffffffffffffffffffffffffffffffffffff021916908373ffffffffffffffffffffffffffffffffffffffff16021790555084600360006101000a81548173ffffffffffffffffffffffffffffffffffffffff021916908373ffffffffffffffffffffffffffffffffffffffff1602179055508360049080519060200190620001c692919062000222565b50826007819055508160088190555080600960006101000a81548173ffffffffffffffffffffffffffffffffffffffff021916908373ffffffffffffffffffffffffffffffffffffffff160217905550505050505050620002d1565b828054600181600116156101000203166002900490600052602060002090601f016020900481019282601f106200026557805160ff191683800117855562000296565b8280016001018555821562000296579182015b828111156200029557825182559160200191906001019062000278565b5b509050620002a59190620002a9565b5090565b620002ce91905b80821115620002ca576000816000905550600101620002b0565b5090565b90565b61125e80620002e16000396000f3fe6080604052600436106100f35760003560e01c80637951b2151161008a578063a5ff765111610059578063a5ff765114610451578063a6f2ae3a146104a8578063b4689995146104b2578063fc0c546a146104ed576100f3565b80637951b2151461036957806381bbfb61146103945780639d1b464a146103eb578063a53cb43514610416576100f3565b80631b47193b116100c65780631b47193b1461022c5780632d962d93146102835780634ed94b641461031357806360f911331461033e576100f3565b806302d05d3f146100f85780630748186d1461014f5780630df6d4b9146101a057806318b20071146101f1575b600080fd5b34801561010457600080fd5b5061010d610544565b604051808273ffffffffffffffffffffffffffffffffffffffff1673ffffffffffffffffffffffffffffffffffffffff16815260200191505060405180910390f35b34801561015b57600080fd5b5061019e6004803603602081101561017257600080fd5b81019080803573ffffffffffffffffffffffffffffffffffffffff16906020019092919050505061056a565b005b3480156101ac57600080fd5b506101ef600480360360208110156101c357600080fd5b81019080803573ffffffffffffffffffffffffffffffffffffffff169060200190929190505050610653565b005b3480156101fd57600080fd5b5061022a6004803603602081101561021457600080fd5b810190808035906020019092919050505061073c565b005b34801561023857600080fd5b5061024161086e565b604051808273ffffffffffffffffffffffffffffffffffffffff1673ffffffffffffffffffffffffffffffffffffffff16815260200191505060405180910390f35b34801561028f57600080fd5b50610298610894565b6040518080602001828103825283818151815260200191508051906020019080838360005b838110156102d85780820151818401526020810190506102bd565b50505050905090810190601f1680156103055780820380516001836020036101000a031916815260200191505b509250505060405180910390f35b34801561031f57600080fd5b50610328610932565b6040518082815260200191505060405180910390f35b34801561034a57600080fd5b50610353610938565b6040518082815260200191505060405180910390f35b34801561037557600080fd5b5061037e61093e565b6040518082815260200191505060405180910390f35b3480156103a057600080fd5b506103a9610944565b604051808273ffffffffffffffffffffffffffffffffffffffff1673ffffffffffffffffffffffffffffffffffffffff16815260200191505060405180910390f35b3480156103f757600080fd5b5061040061096a565b6040518082815260200191505060405180910390f35b34801561042257600080fd5b5061044f6004803603602081101561043957600080fd5b8101908080359060200190929190505050610970565b005b34801561045d57600080fd5b50610466610a1f565b604051808273ffffffffffffffffffffffffffffffffffffffff1673ffffffffffffffffffffffffffffffffffffffff16815260200191505060405180910390f35b6104b0610a44565b005b3480156104be57600080fd5b506104eb600480360360208110156104d557600080fd5b8101908080359060200190929190505050610cd5565b005b3480156104f957600080fd5b50610502610d84565b604051808273ffffffffffffffffffffffffffffffffffffffff1673ffffffffffffffffffffffffffffffffffffffff16815260200191505060405180910390f35b600360009054906101000a900473ffffffffffffffffffffffffffffffffffffffff1681565b6000809054906101000a900473ffffffffffffffffffffffffffffffffffffffff1673ffffffffffffffffffffffffffffffffffffffff163373ffffffffffffffffffffffffffffffffffffffff161461060f576040517f08c379a00000000000000000000000000000000000000000000000000000000081526004018080602001828103825260248152602001806111bb6024913960400191505060405180910390fd5b80600160006101000a81548173ffffffffffffffffffffffffffffffffffffffff021916908373ffffffffffffffffffffffffffffffffffffffff16021790555050565b6000809054906101000a900473ffffffffffffffffffffffffffffffffffffffff1673ffffffffffffffffffffffffffffffffffffffff163373ffffffffffffffffffffffffffffffffffffffff16146106f8576040517f08c379a00000000000000000000000000000000000000000000000000000000081526004018080602001828103825260248152602001806111bb6024913960400191505060405180910390fd5b80600260006101000a81548173ffffffffffffffffffffffffffffffffffffffff021916908373ffffffffffffffffffffffffffffffffffffffff16021790555050565b6000809054906101000a900473ffffffffffffffffffffffffffffffffffffffff1673ffffffffffffffffffffffffffffffffffffffff163373ffffffffffffffffffffffffffffffffffffffff16146107e1576040517f08c379a00000000000000000000000000000000000000000000000000000000081526004018080602001828103825260248152602001806111bb6024913960400191505060405180910390fd5b61080c6006546107fe600554600754610daa90919063ffffffff16565b610daa90919063ffffffff16565b811015610864576040517f08c379a000000000000000000000000000000000000000000000000000000000815260040180806020018281038252604b8152602001806111df604b913960600191505060405180910390fd5b8060088190555050565b600260009054906101000a900473ffffffffffffffffffffffffffffffffffffffff1681565b60048054600181600116156101000203166002900480601f01602080910402602001604051908101604052809291908181526020018280546001816001161561010002031660029004801561092a5780601f106108ff5761010080835404028352916020019161092a565b820191906000526020600020905b81548152906001019060200180831161090d57829003601f168201915b505050505081565b60055481565b60065481565b60075481565b600160009054906101000a900473ffffffffffffffffffffffffffffffffffffffff1681565b60085481565b6000809054906101000a900473ffffffffffffffffffffffffffffffffffffffff1673ffffffffffffffffffffffffffffffffffffffff163373ffffffffffffffffffffffffffffffffffffffff1614610a15576040517f08c379a00000000000000000000000000000000000000000000000000000000081526004018080602001828103825260248152602001806111bb6024913960400191505060405180910390fd5b8060058190555050565b6000809054906101000a900473ffffffffffffffffffffffffffffffffffffffff1681565b6008543073ffffffffffffffffffffffffffffffffffffffff16311015610ad3576040517f08c379a000000000000000000000000000000000000000000000000000000000815260040180806020018281038252601d8152602001807f416464726573733a20696e73756666696369656e742062616c616e636500000081525060200191505060405180910390fd5b610b3e600754610b1a600360009054906101000a900473ffffffffffffffffffffffffffffffffffffffff1673ffffffffffffffffffffffffffffffffffffffff16610e32565b73ffffffffffffffffffffffffffffffffffffffff16610e3c90919063ffffffff16565b610ba9600554610b85600160009054906101000a900473ffffffffffffffffffffffffffffffffffffffff1673ffffffffffffffffffffffffffffffffffffffff16610e32565b73ffffffffffffffffffffffffffffffffffffffff16610e3c90919063ffffffff16565b610c14600654610bf0600260009054906101000a900473ffffffffffffffffffffffffffffffffffffffff1673ffffffffffffffffffffffffffffffffffffffff16610e32565b73ffffffffffffffffffffffffffffffffffffffff16610e3c90919063ffffffff16565b6000610c55600654610c47600554610c39600754600854610f8d90919063ffffffff16565b610f8d90919063ffffffff16565b610f8d90919063ffffffff16565b90506000811115610cc957610cc881610ca46000809054906101000a900473ffffffffffffffffffffffffffffffffffffffff1673ffffffffffffffffffffffffffffffffffffffff16610e32565b73ffffffffffffffffffffffffffffffffffffffff16610e3c90919063ffffffff16565b5b610cd233610fd7565b50565b6000809054906101000a900473ffffffffffffffffffffffffffffffffffffffff1673ffffffffffffffffffffffffffffffffffffffff163373ffffffffffffffffffffffffffffffffffffffff1614610d7a576040517f08c379a00000000000000000000000000000000000000000000000000000000081526004018080602001828103825260248152602001806111bb6024913960400191505060405180910390fd5b8060068190555050565b600960009054906101000a900473ffffffffffffffffffffffffffffffffffffffff1681565b600080828401905083811015610e28576040517f08c379a000000000000000000000000000000000000000000000000000000000815260040180806020018281038252601b8152602001807f536166654d6174683a206164646974696f6e206f766572666c6f77000000000081525060200191505060405180910390fd5b8091505092915050565b6000819050919050565b803073ffffffffffffffffffffffffffffffffffffffff16311015610ec9576040517f08c379a000000000000000000000000000000000000000000000000000000000815260040180806020018281038252601d8152602001807f416464726573733a20696e73756666696369656e742062616c616e636500000081525060200191505060405180910390fd5b60008273ffffffffffffffffffffffffffffffffffffffff168260405180600001905060006040518083038185875af1925050503d8060008114610f29576040519150601f19603f3d011682016040523d82523d6000602084013e610f2e565b606091505b5050905080610f88576040517f08c379a000000000000000000000000000000000000000000000000000000000815260040180806020018281038252603a815260200180611181603a913960400191505060405180910390fd5b505050565b6000610fcf83836040518060400160405280601e81526020017f536166654d6174683a207375627472616374696f6e206f766572666c6f7700008152506110c0565b905092915050565b600960009054906101000a900473ffffffffffffffffffffffffffffffffffffffff1673ffffffffffffffffffffffffffffffffffffffff166340c10f198260016040518363ffffffff1660e01b8152600401808373ffffffffffffffffffffffffffffffffffffffff1673ffffffffffffffffffffffffffffffffffffffff16815260200182815260200192505050602060405180830381600087803b15801561108157600080fd5b505af1158015611095573d6000803e3d6000fd5b505050506040513d60208110156110ab57600080fd5b81019080805190602001909291905050505050565b600083831115829061116d576040517f08c379a00000000000000000000000000000000000000000000000000000000081526004018080602001828103825283818151815260200191508051906020019080838360005b83811015611132578082015181840152602081019050611117565b50505050905090810190601f16801561115f5780820380516001836020036101000a031916815260200191505b509250505060405180910390fd5b506000838503905080915050939250505056fe416464726573733a20756e61626c6520746f2073656e642076616c75652c20726563697069656e74206d617920686176652072657665727465644f6e6c79206d65726368616e742063616e2063616c6c20746869732066756e6374696f6e6e65772070726963652063616e6e6f74206265206c6f776572207468616e207468652073756d206f662074686520696e766f6c766564207061727469657320636f6d70656e736174696f6ea265627a7a72315820d6c00de6d8869e4bdb685adb01e40b988610de4bf03bae66a20418e80b2e285d64736f6c634300050c0032",
  "source": "pragma solidity ^0.5.0;\n\n// import \"./DappToken.sol\";\nimport \"./DappToken.sol\";\nimport \"../client/node_modules/@openzeppelin/contracts/utils/Address.sol\";\nimport \"../client/node_modules/@openzeppelin/contracts/math/SafeMath.sol\";\n\ncontract DigitalContentContract {\n    using Address for address;\n    using Address for address payable;\n    using SafeMath for uint256;\n\n    address public merchant;\n    address public deliverer;\n    address public keyAuthority;\n    address public creator;\n    string public dcHash;\n    uint256 public delivererCompensation;\n    uint256 public keyAuthorityCompensation;\n    uint256 public creatorCompensation;\n    uint256 public currentPrice;\n    DappToken public token;\n\n\n    modifier onlyMerchant {\n        require(msg.sender == merchant, \"Only merchant can call this function\");\n        _;\n    }\n\n    constructor(\n        address _merchant,\n        address _creator,\n        string memory _dcHash,\n        uint256 _creatorCompensation,\n        uint256 _currentPrice,\n        DappToken _token\n    )\n    public {\n        merchant = _merchant;\n        creator = _creator;\n        dcHash = _dcHash;\n        creatorCompensation = _creatorCompensation;\n        currentPrice = _currentPrice;\n        token = _token;\n    }\n\n    /**\n    * @dev Set a deliverer. Can be triggered only by the merchant\n    * @param _deliverer address of Deliverer picked by the merchant\n    */\n    function setDeliverer(address _deliverer)\n        public onlyMerchant\n    {\n        deliverer = _deliverer;\n    }\n\n    /**\n    * @dev Set a deliverer's compensation. Can be triggered only by the merchant\n    * @param _delivererCompensation Compensation for the deliverer\n    */\n    function setDelivererCompensation(uint256 _delivererCompensation)\n        public onlyMerchant\n    {\n        delivererCompensation = _delivererCompensation;\n    }\n\n        /**\n    * @dev Set a Key Authority. Can be triggered only by the merchant\n    * @param _keyAuthority address of Key Authority picked by the merchant\n    */\n    function setKeyAuthority(address _keyAuthority)\n        public onlyMerchant\n    {\n        keyAuthority = _keyAuthority;\n    }\n\n    /**\n    * @dev Set a deliverer's compensation. Can be triggered only by the merchant\n    * @param _keyAuthorityCompensation Compensation\n    */\n    function setKACompensation(uint256 _keyAuthorityCompensation)\n        public onlyMerchant\n    {\n        keyAuthorityCompensation = _keyAuthorityCompensation;\n    }\n\n    /**\n    * @dev Set a current price of digital content. Can be triggered only by the merchant. Price cannot be lower than creatorCompensation\n    * @param newPrice New price of the content\n    */\n    function setCurrentPrice(uint256 newPrice)\n        public onlyMerchant\n    {\n        require(newPrice >= creatorCompensation\n        .add(delivererCompensation)\n        .add(keyAuthorityCompensation),\n        \"new price cannot be lower than the sum of the involved parties compensation\");\n\n        currentPrice = newPrice;\n    }\n\n    /**\n    * @dev Buy the digital content. The content token will be automatically issued to the buyer's account\n    */\n    function buy()\n        public payable\n    {\n        // Balance needs to be higher or equal to the currentPrice\n        require(address(this).balance >= currentPrice, \"Address: insufficient balance\");\n\n        // Compensate transaction participants\n        creator.toPayable().sendValue(creatorCompensation);\n        deliverer.toPayable().sendValue(delivererCompensation);\n        keyAuthority.toPayable().sendValue(keyAuthorityCompensation);\n\n        uint256 merchantCompensation = currentPrice\n        .sub(creatorCompensation)\n        .sub(delivererCompensation)\n        .sub(keyAuthorityCompensation);\n\n        // Merchant can resign from their compensation - compensation = 0\n        if (merchantCompensation > 0) {\n            merchant.toPayable().sendValue(merchantCompensation);\n        }\n\n        // Issue the token for the buyer\n        _issueToken(msg.sender);\n    }\n\n    /**\n    * @dev Issue a token and send it to a buyer's address\n    * @param _buyer Digital content purchaser\n    */\n    function _issueToken(\n        address _buyer\n    )\n        internal\n    {\n        token.mint(_buyer, 1);\n    }\n\n}",
  "sourcePath": "/Users/jacek/Documents/SolidityProjects/react-box/contracts/DigitalContentContract.sol",
  "compiler": {
    "name": "solc",
    "version": "0.5.12+commit.7709ece9.Emscripten.clang"
  },
  "schemaVersion": "3.0.19",
  "updatedAt": "2020-01-20T10:53:38.606Z",
  "networkType": "ethereum",
  "devdoc": {
    "methods": {
      "buy()": {
        "details": "Buy the digital content. The content token will be automatically issued to the buyer's account"
      },
      "setCurrentPrice(uint256)": {
        "details": "Set a current price of digital content. Can be triggered only by the merchant. Price cannot be lower than creatorCompensation",
        "params": {
          "newPrice": "New price of the content"
        }
      },
      "setDeliverer(address)": {
        "details": "Set a deliverer. Can be triggered only by the merchant",
        "params": {
          "_deliverer": "address of Deliverer picked by the merchant"
        }
      },
      "setDelivererCompensation(uint256)": {
        "details": "Set a deliverer's compensation. Can be triggered only by the merchant",
        "params": {
          "_delivererCompensation": "Compensation for the deliverer"
        }
      },
      "setKACompensation(uint256)": {
        "details": "Set a deliverer's compensation. Can be triggered only by the merchant",
        "params": {
          "_keyAuthorityCompensation": "Compensation"
        }
      },
      "setKeyAuthority(address)": {
        "details": "Set a Key Authority. Can be triggered only by the merchant",
        "params": {
          "_keyAuthority": "address of Key Authority picked by the merchant"
        }
      }
    }
  },
  "userdoc": {
    "methods": {}
  }
}